I                                                                                000000000WEST                    JONATHAN                                          51923045819750127                                                                           00000000000000000 711    E AVENUE H                  JEROME              ID833380000711    E AVENUE H                  JEROME              ID833380000HOMELOANSERV                                            H   0122312101      0000000000002017020900000000000OTHER      01223121012017020901NCOTHER                                        WEST                    JONATHAN     711    E AVENUE H                  JEROME              ID83338000051923045819750127             CA00355              00000050000000000000000000000000000000000000                         2017020900000000000000000000001990000000000000000                                                              0000000000000000000000002017112020161121000000000000000000000000000000000                                                                                                                                                        000000000                                                                                                                                                                                                                                                                                                                                                                                                                                                           
I                                                                                000000000ROTH                    WILLIAM                                           52019006219820117MROTH                    CHELSEY                                           52027425819880816F4755   DECLARATION         DR      CHUBBUCK            ID8320200004755   DECLARATION         DR      CHUBBUCK            ID832020000HOMELOANSERV                                            H   0124221601      0000000000002017020500000000000OTHER      01242216012017020501NCALL OTHER                                    ROTH                    WILLIAM      4755   DECLARATION         DR      CHUBBUCK            ID83202000052019006219820117M            CA00355              00000050000000000000000000000000000000000000                         2017020600000000000000000000002560000000000000000                                                              0000000000000000000000002017080620160806000000000000000000000000000000000                                                                                                                                                        000000000                                                                                                                                                                                                                                                                                                                                                                                                                                                           
I                                                                                000000000TERRY                   ERNEST                                            51846505319450221MTERRY                   JANET                                             00000000019510324 406    S HORNET CREEK      RD      COUNCIL             ID836120000       PO BOX 84                   COUNCIL             ID836120000                                                        H   0100964103      0000000000002017013100000000000WSNOW      01009641032017013101NOWEIGHT OF ICE OR SNOW                        TERRY                   ERNEST              PO BOX 84                   COUNCIL             ID83612000051846505319450221M            OA00355              00000050000000000000000000000000000000000000                         2017020700000000000000000000000650000000000000000                                                              0000000000000000000000002017041420160414000000000000000000000000000000000                                                                                                                                                        000000000                                                                                                                                                                                                                                                                                                                                                                                                                                                           
I                                                                                000000000CAHILL                  CAROL                                             51944825119390218                                                                           00000000000000000 2897   N CITRUS            PL      BOISE               ID8371300002897   N CITRUS            PL      BOISE               ID837130000OCWEN LOAN SERVICING LLC                                H   0116741401      0000000000002017032600000000000ACCDL      01167414012017032601NOACCIDENTAL DISCHARGE / LEAKAGE               CAHILL                  CAROL        2897   N CITRUS            PL      BOISE               ID83713000051944825119390218             OA00355              00000050000000000000000000015000000000000000                         2017032720170327000000000000001720000000000000000                                                              0000000000000000000000002017101020161024000000000000000000000000000000000                                                                                                                                                        000000000                                                                                                                                                                                                                                                                                                                                                                                                                                                           
I                                                                                000000000CAHILL                  CAROL                                             51944825119390218                                                                           00000000000000000 2897   N CITRUS            PL      BOISE               ID8371300002897   N CITRUS            PL      BOISE               ID837130000OCWEN LOAN SERVICING LLC                                H   0116741401      0000000000002017032600000000000ACCDL      01167414012017032601NOACCIDENTAL DISCHARGE / LEAKAGE               CAHILL                  CAROL        2897   N CITRUS            PL      BOISE               ID83713000051944825119390218             OA00355              00000050000000000000000000000000000000000000                         2017032720170327000000000000000344000000000000000                                                              0000000000000000000000002017101020161024000000000000000000000000000000000                                                                                                                                                        000000000                                                                                                                                                                                                                                                                                                                                                                                                                                                           
I                                                                                000000000STEADMAN                DEE                                               52813751919591006MSTEADMAN                SHELLY                                            51990523219610622F2210   LAGO LIBERTY        RD      GRACE               ID8324100002210   LAGO LIBERTY        RD      GRACE               ID832410000JP MORGAN CHASE BANK NA                                 H   0107740501      0000000000002017012500000000000OTHER      01077405012017012501NWOTHER                                        STEADMAN                SHELLY       2210   LAGO LIBERTY        RD      GRACE               ID83241000051990523219610622F            WA00355              00000025000000000000000000000000000000000000                         2017012600000000000000000000002070000000000000000                                                              0000000000000000000000002017090620160906000000000000000000000000000000000                                                                                                                                                        000000000                                                                                                                                                                                                                                                                                                                                                                                                                                                           
I                                                                                000000000CAIRNS                  TERRY                                             53458295919540219MCAIRNS                  TWYLA                                             53458189819550409F1912   S EXETER                    COUNCIL             ID836120000       PO BOX 814                  COUNCIL             ID836120000CU HOME MORTGAGE SOLUTIONS LLC                          R   0121953301      0000000000002017012600000000000WSNOW      01219533012017012601NOWEIGHT OF ICE OR SNOW                        CAIRNS                  TERRY               PO BOX 814                  COUNCIL             ID83612000053458295919540219M            OA00355              00000050000000000000000000000000000000000000                         2017020700000000000000000000001420000000000000000                                                              0000000000000000000000002017071620160716000000000000000000000000000000000                                                                                                                                                        000000000                                                                                                                                                                                                                                                                                                                                                                                                                                                           
I                                                                                000000000SAMUELSON               BRADLEY                                           51925657719790623                                                                           00000000000000000 325    PARK                AVE     POCATELLO           ID832010000325    PARK                AVE     POCATELLO           ID832010000GUILD MORTGAGE COMPANY                                  H   0122698502      0000000000002017010700000000000OTHER      01226985022017010701NCOTHER                                        SAMUELSON               BRADLEY      325    PARK                AVE     POCATELLO           ID83201000051925657719790623             CA00355              00000050000000000000000000000000000000000000                         2017010900000000000000000000001620000000000000000                                                              0000000000000000000000002017020220160202000000000000000000000000000000000                                                                                                                                                        000000000                                                                                                                                                                                                                                                                                                                                                                                                                                                           
I                                                                                000000000MAEL                    EDWARD                                            51811699419700713MMAEL                    JAMIE                                             51994081419720806F13469  W HIDDEN VALLEY     RD      RATHDRUM            ID83858000013469  W HIDDEN VALLEY     RD      RATHDRUM            ID838580000BANK OF AMERICA NA                                      H   0124046601      0000000000002017021500000000000WSNOW      01240466012017021501NWWEIGHT OF ICE OR SNOW                        MAEL                    EDWARD       13469  W HIDDEN VALLEY     RD      RATHDRUM            ID83858000051811699419700713M            WA00355              00000050000000000000000000000000000000000000                         2017021600000000000000000000001080000000000000000                                                              0000000000000000000000002017042420160424000000000000000000000000000000000                                                                                                                                                        000000000                                                                                                                                                                                                                                                                                                                                                                                                                                                           
I                                                                                000000000RALLS                   JERRY                                             51852787919440324MRALLS                   JUDY                                              51956966919571204F615    CRAWFORD            RD      CASCADE             ID83611000016741  USTICK              RD      CALDWELL            ID836070000                                                        R   0109813201      0000000000002016080200000000000OTHER      01098132012016080201NWALL OTHER                                    RALLS                   JUDY         16741  USTICK              RD      CALDWELL            ID83607000051956966919571204F            WA00355              00000050000000000000000000000000000000000000                         2016081220160812000000000000003250000000000000000                                                              0000000000000000000000002016081820150818000000000000000000000000000000000                                                                                                                                                        000000000                                                                                                                                                                                                                                                                                                                                                                                                                                                           
I                                                                                000000000HORTING                 JOSHUA                                            51819941319820224 HORTING                 EMILY                                             00000000000000000 2668   YUKON TRL                   BURLEY              ID8331800002668   YUKON TRL                   BURLEY              ID833180000JP MORGAN CHASE BANK NA                                 H   0117489601      0000000000002017031800000000000ACCDL      01174896012017031801NOACCIDENTAL DISCHARGE / LEAKAGE               HORTING                 JOSHUA       2668   YUKON TRL                   BURLEY              ID83318000051819941319820224             OA00355              00000050000000000000000000000000000000000000                         2017032000000000000000000000001890000000000000000                                                              0000000000000000000000002017102620161026000000000000000000000000000000000                                                                                                                                                        000000000                                                                                                                                                                                                                                                                                                                                                                                                                                                           
I                                                                                000000000HOSKINS                 MANUEL                                            51862779519500505MHOSKINS                 DIANA                                             51866000519530420F29457  PARMA               RD      PARMA               ID83660000029457  PARMA               RD      PARMA               ID836600000WELLS FARGO BANK NA                                     H   0105898111      0000000000002017011000000000000WSNOW      01058981112017011001NOWEIGHT OF ICE OR SNOW                        HOSKINS                 MANUEL       29457  PARMA               RD      PARMA               ID83660000051862779519500505M            OA00355              00000025000000000000000000025000000000000000                         2017011120170111000000000000002420000000000000000                                                              0000000000000000000000002017070120160701000000000000000000000000000000000                                                                                                                                                        000000000                                                                                                                                                                                                                                                                                                                                                                                                                                                           
I                                                                                000000000HOSKINS                 MANUEL                                            51862779519500505MHOSKINS                 DIANA                                             51866000519530420F29457  PARMA               RD      PARMA               ID83660000029457  PARMA               RD      PARMA               ID836600000WELLS FARGO BANK NA                                     H   0105898111      0000000000002017011000000000000WSNOW      01058981112017011001NOWEIGHT OF ICE OR SNOW                        HOSKINS                 MANUEL       29457  PARMA               RD      PARMA               ID83660000051862779519500505M            OA00355              00000025000000000000000000000000000000000000                         2017011120170111000000000000000040000000000000000                                                              0000000000000000000000002017070120160701000000000000000000000000000000000                                                                                                                                                        000000000                                                                                                                                                                                                                                                                                                                                                                                                                                                           
I                                                                                000000000CRANDALL                MICHELLE                                          62305828219780817F                                                                          00000000000000000 1780   POCATELLO CREEK     RD      POCATELLO           ID8320100001780   POCATELLO CREEK     RD      POCATELLO           ID832010000BANK OF AMERICA NA                                      H   0105136702      0000000000002017020400000000000ACCDL      01051367022017020401NCACCIDENTAL DISCHARGE / LEAKAGE               CRANDALL                MICHELLE     1780   POCATELLO CREEK     RD      POCATELLO           ID83201000062305828219780817F            CA00355              00000050000000000000000000000000000000000000                         2017020600000000000000000000001460000000000000000                                                              0000000000000000000000002018010120170101000000000000000000000000000000000                                                                                                                                                        000000000                                                                                                                                                                                                                                                                                                                                                                                                                                                           
I                                                                                000000000HILTON                  LANCE                                             55293460419691212MHILTON                  CYNTHIA                                           56889085919720720F512    W ASHBOURNE         DR      EAGLE               ID836160000512    W ASHBOURNE         DR      EAGLE               ID836160000                                                        H   0119141301      0000000000002015092800000000000LIAB       01191413012015092801NOLIABILITY                                                                                                                                  00000000000000000000000000             OA00355              00000000000000000000000000000000000000000000                         2017032700000000000000000000005000000000000000000                                                              0000000000000000000000002016070220150828000000000000000000000000000000000                                                                                                                                                        000000000                                                                                                                                                                                                                                                                                                                                                                                                                                                           
I                                                                                000000000SWIFT                   WILLIAM                                           25276071619491212MSWIFT                   MYRTLE                                            51864275919510124F12056  W HICKORY           DR      BOISE               ID83713000012056  W HICKORY           DR      BOISE               ID837130000SELECT PORTFOLIO SERVICES INC                           H   0108784301      0000000000002017020900000000000OTHER      01087843012017020901NCALL OTHER                                    SWIFT                   WILLIAM      12056  W HICKORY           DR      BOISE               ID83713000025276071619491212M            CA00355              00000050000000000000000000000000000000000000                         2017020900000000000000000000002420000000000000000                                                              0000000000000000000000002017030520160301000000000000000000000000000000000                                                                                                                                                        000000000                                                                                                                                                                                                                                                                                                                                                                                                                                                           
I                                                                                000000000TOMLINSON               RODNEY                                            51988973319620921MTOMLINSON               BONNIE                                            55974146119481114F2641   N PHOENIX           AVE     MERIDIAN            ID8364600002641   N PHOENIX           AVE     MERIDIAN            ID836460000BANK OF AMERICA NA                                      H   0100066801      0000000000002017032200000000000WSNOW      01000668012017032201NOWEIGHT OF ICE OR SNOW                        TOMLINSON               BONNIE       2641   N PHOENIX           AVE     MERIDIAN            ID83646000055974146119481114F            OA00355              00000025000000000000000000000000000000000000                         2017032200000000000000000000001710000000000000000                                                              0000000000000000000000002017100620161006000000000000000000000000000000000                                                                                                                                                        000000000                                                                                                                                                                                                                                                                                                                                                                                                                                                           
I                                                                                000000000IRWIN                   RICHARD                                           52436999319290214MIRWIN                   JOANN                                             47834230619311108F2253   CANDLERIDGE EAST    CIR     TWIN FALLS          ID8330100002253   CANDLERIDGE EAST    CIR     TWIN FALLS          ID833010000                                                        H   0106831401      0000000000002017020500000000000OTHER      01068314012017020501NCALL OTHER                                    IRWIN                   RICHARD      2253   CANDLERIDGE EAST    CIR     TWIN FALLS          ID83301000052436999319290214M            CA00355              00000050000000000000000000000000000000000000                         2017020600000000000000000000004300000000000000000                                                              0000000000000000000000002017123120161231000000000000000000000000000000000                                                                                                                                                        000000000                                                                                                                                                                                                                                                                                                                                                                                                                                                           
I                                                                                000000000BEAZER                  CYNTHIA                                           51904182319790801                                                                           00000000000000000 1908   W NEZ PERCE         ST      BOISE               ID8370500001908   W NEZ PERCE         ST      BOISE               ID837050000IDAHO CENTRAL CREDIT UNION                              H   0123037201      0000000000002017032200000000000ACCDL      01230372012017032201NOACCIDENTAL DISCHARGE / LEAKAGE               BEAZER                  CYNTHIA      1908   W NEZ PERCE         ST      BOISE               ID83705000051904182319790801             OA00355              00000050000000000000000000000000000000000000                         2017032200000000000000000000001090000000000000000                                                              0000000000000000000000002017071620160716000000000000000000000000000000000                                                                                                                                                        000000000                                                                                                                                                                                                                                                                                                                                                                                                                                                           
I                                                                                000000000RANKIN                  ROGER                                             52164328419491106                                                                           00000000000000000 1624   BETH                ST      POCATELLO           ID8320100001624   BETH                ST      POCATELLO           ID832010000DITECH FINANCIAL LLC                                    H   0107373701      0000000000002017011400000000000OTHER      01073737012017011401NCALL OTHER                                    RANKIN                  ROGER        1624   BETH                ST      POCATELLO           ID83201000052164328419491106             CA00355              00000025000000000000000000000000000000000000                         2017011700000000000000000000001880000000000000000                                                              0000000000000000000000002017073020160730000000000000000000000000000000000                                                                                                                                                        000000000                                                                                                                                                                                                                                                                                                                                                                                                                                                           
